:05000300007F19DFFE83
:0100080022D5
:0403E3007F6CDFFE4E
:0103E70022F3
:0E03BB0000007F2B7E067DCBDDFEDEFCDFFA30
:0103C9002211
:070366000532000000000158
:1003A600538E7F5389F0E4F58A758CB8C28DD2AF2F
:0503B600D2A9D28C2247
:03000B0002038964
:10038900C0E0C0F0C083C082C0D075D008D2B51219
:0D0399000279D0D0D082D083D0F0D0E032F5
:1003100075C135C2B0D2B51203BBC2B51203A6E493
:10032000F512F51375C1351203CA0513E5137002F2
:0F0330000512C394F4E5126480948140E780DBEA
:0A03D9003F065B4F666D7D077F6FE6
:10036D00082A000000000000000008221020408034
:04037D00010204086D
:10015900E53475F064A4AEF07C002535F515EC3E68
:10016900F514E53275F064A4AEF02533F517EC3ECD
:10017900F51678187C007D007BFF7A0379D97E001B
:100189007F0A1200DEE4FBAE16AF177C007D0A126F
:10019900010474182DF8E6FFC374039B242AF8A6FA
:1001A90007AE14AF157C007D0A12010474182DF8EE
:1001B900E6FFC374079B242AF8A607AE16AF177C7F
:1001C900007D0A1201048E168F17AE14AF157C003C
:1001D9007D0A1201048E148F150BBB04AA432B80D0
:0301E900432F8021
:0101EC0022F0
:1002D90074222FF8E6FEE4FDC2B1EE3392B0EE25AA
:1002E900E0FED2B10DBD08F0742A2FF8E6FEE4FD58
:1002F900C2B1EE3392B0EE25E0FED2B10DBD08F0E9
:06030900C2B20000D2B2F6
:01030F0022CB
:0E03CA00120159E4FCAF041202D90CBC08F772
:0103D8002202
:070381000537000000000039
:10033F00E4F510F511F51030B5FD1203E3E51125C5
:10034F00E0F51130B505051120B5FD0510E510C319
:06035F00940840E3AF1119
:010365002275
:100279001203E320B52530B5FD1203E31203E3129F
:10028900000312033F8F3712033F8F3812033F8F4A
:100299003912033F8F3A12033F8F3BD2B5E5372519
:1002A90038FFE433FE7C00EF2539FFEC3EFEEF25F5
:1002B9003AFFEC3EFEE53BB50715ECB50611FF74B8
:0F02C900372FF8E6FE74322FF8A6060FBF05F0A8
:0102D8002203
:030000000201ED0D
:0C01ED00787FE4F6D8FD75813B020234F7
:10000E00E709F608DFFA8046E709F208DFFA803ED4
:10001E0088828C83E709F0A3DFFA8032E309F608C1
:10002E00DFFA8078E309F208DFFA807088828C8329
:10003E00E309F0A3DFFA806489828A83E0A3F608DD
:10004E00DFFA805889828A83E0A3F208DFFA804CB7
:10005E0080D280FA80C680D4806980F2803380108E
:10006E0080A680EA809A80A880DA80E280CA8033F7
:10007E0089828A83ECFAE493A3C8C582C8CCC5836F
:10008E00CCF0A3C8C582C8CCC583CCDFE9DEE7803F
:10009E000D89828A83E493A3F608DFF9ECFAA9F0BE
:1000AE00EDFB2289828A83ECFAE0A3C8C582C8CC14
:1000BE00C583CCF0A3C8C582C8CCC583CCDFEADE2D
:1000CE00E880DB89828A83E493A3F208DFF980CC8F
:1000DE0088F0EF60010E4E60C388F0ED2402B40488
:1000EE000050B9F582EB2402B4040050AF2323452F
:0600FE00822390005E73F6
:10010400BC000BBE0029EF8DF084FFADF022E4CCDF
:10011400F875F008EF2FFFEE33FEEC33FCEE9DECA8
:10012400984005FCEE9DFE0FD5F0E9E4CEFD22EDEE
:10013400F8F5F0EE8420D21CFEADF075F008EF2F38
:10014400FFED33FD4007985006D5F0F222C398FD29
:050154000FD5F0EA22C6
:1001F900020310E493A3F8E493A34003F68001F209
:1002090008DFF48029E493A3F85407240CC8C33306
:10021900C4540F4420C8834004F456800146F6DFD5
:10022900E4800B0102040810204080900366E47EFC
:10023900019360BCA3FF543F30E509541FFEE493CA
:10024900A360010ECF54C025E060A840B8E493A391
:10025900FAE493A3F8E493A3C8C582C8CAC583CABC
:10026900F0A3C8C582C8CAC583CADFE9DEE780BE74
:010388000074
:00000001FF
